:020000040800F2
:10000000D835002089010008D718000875020008BB
:10001000D3180008950300088D1E0008000000009A
:100020000000000000000000000000009B0100082C
:100030009903000800000000F701000805190008F6
:10004000A3010008A3010008A3010008A301000800
:10005000A3010008A3010008A3010008A3010008F0
:10006000A3010008A3010008A3010008A3010008E0
:10007000A3010008A3010008A3010008A3010008D0
:10008000A3010008A3010008A3010008A3010008C0
:10009000A3010008A3010008A3010008A3010008B0
:1000A000A3010008251A0008A3010008A301000805
:1000B000A3010008A3010008A3010008A301000890
:1000C000A3010008A3010008A3010008A301000880
:1000D000A30100087D1E0008A3010008A301000879
:1000E000A3010008A3010008A301000800F002F822
:1000F00000F03AF80AA090E8000C82448344AAF188
:100100000107DA4501D100F02FF8AFF2090EBAE885
:100110000F0013F0010F18BFFB1A43F0010318473B
:10012000DC3C0000FC3C0000103A24BF78C878C1D9
:10013000FAD8520724BF30C830C144BF04680C60ED
:10014000704700000023002400250026103A28BF35
:1001500078C1FBD8520728BF30C148BF0B60704739
:100160001FB51FBD10B510BD00F0DAF81146FFF73E
:10017000F7FF00F00AF900F0F8F803B4FFF7F2FF18
:1001800003BC00F0FBF8000009488047094800471D
:10019000FEE7FEE7FEE7FEE7FEE7FEE7FEE7FEE737
:1001A000FEE7FEE704480549054A064B7047000094
:1001B000211A0008ED000008D82F0020D8350020B3
:1001C000D8310020D8310020EFF3108072B670478C
:1001D00080F310887047344A1368012B04D04FF025
:1001E00001031360314A1060314A116031484FF009
:1001F000805101607047EFF3108272B62A4801689F
:1002000091B14FF0000101602848016829B1EFF376
:10021000098121E9F00F0068016025490968096832
:10022000B1E8F00F81F3098882F310884EF0040ED4
:1002300070471F4908601D494FF0000008601A49C7
:100240004FF0010008601C481C49D0F8002041EA2A
:100250000201016017484FF08051016018480068A2
:10026000006880F3088861B662B6BFF34F8FBFF3B2
:100270006F8F70471EF0040F0CBFEFF30880EFF391
:10028000098020E9F00F40F804ED1EF0040F0CBFC8
:1002900080F3088880F3098800B502F03BF95DF827
:1002A00004EB4EF0040E70471800002010000020F0
:1002B0001400002004ED00E020ED00E00000FFFF4E
:1002C00008ED00E04FF0000200B513469446964654
:1002D000203922BFA0E80C50A0E80C50B1F1200159
:1002E000BFF4F7AF090728BFA0E80C5048BF0CC007
:1002F0005DF804EB890028BF40F8042B08BF704765
:1003000048BF20F8022B11F0804F18BF00F8012BD6
:10031000704770477047704700487047742F00203F
:100320007546FFF7F9FFAE4605006946534620F0D3
:100330000700854618B020B5FFF734FFBDE8204020
:100340004FF000064FF000074FF000084FF0000B91
:1003500021F00701AC46ACE8C009ACE8C009ACE844
:10036000C009ACE8C0098D46704710B50446AFF32C
:1003700000802046BDE81040FFF7FFBE014918206D
:10038000ABBEFEE726000200704710B503F005FC87
:10039000002010BD00BFFEE7704772B600BFFEE749
:1003A0000146002291F82100022808D00420886329
:1003B00000BF002081F8200000BF012070470868BE
:1003C000006820F00E000B6818600868006820F0D4
:1003D00001000B68186091F8403001209840CB6B09
:1003E0005860012081F8210000BF002081F8200022
:1003F00000BF1046E2E7000070B50446002594F8FF
:100400002100022803D00420A063012548E02068D1
:10041000006820F00E00216808602068006820F065
:100420000100216808601F492068884201D101202D
:1004300026E01C4914312068884201D110201FE0B9
:10044000184928312068884201D1801518E01549E3
:100450003C312068884201D1801411E011495031AB
:100460002068884202D14FF4803009E00D496431A0
:100470002068884202D14FF4801001E04FF0807074
:10048000084908394860012084F8210000BF002095
:1004900084F8200000BF606B10B12046616B884774
:1004A000284670BD080002402DE9F84703460022A7
:1004B00094466EE14FF0010808FA02F4D1F800808A
:1004C00008EA0400A0427DD1DFF8DCA2D1F8048064
:1004D000A8EB0A09D0453AD014DCB8F1030F50D08C
:1004E00009DCB8F1000F31D0B8F1010F1CD0B8F120
:1004F000020F49D120E0B8F1110F18D0B8F1120F56
:1005000042D11EE0B9F5881F25D006DCB9F5803F41
:1005100020D0B9F5801F37D11AE0B9F5001F18D0E7
:10052000B9F5041F30D117E0D1F80CC02DE0D1F897
:100530000C8008F1040C28E0D1F80C8008F1080CBC
:1005400023E0D1F80C8008F10C0C1EE000BF00BFC6
:1005500000BF00BF00BF00BFD1F80880B8F1000F96
:1005600002D14FF0040C0BE0D1F80880B8F1010F74
:1005700003D14FF0080C1C6102E04FF0080C5C61E5
:1005800003E04FF0000C00E000BF00BFFF2801D8DF
:10059000984601E003F104084646FF2802D84FEAD6
:1005A000820803E0A2F108084FEA88084746D6F817
:1005B00000804FF00F0909FA07F928EA09080CFA38
:1005C00007F900E088E048EA0908C6F80080D1F899
:1005D000048008F08058B8F1805F7DD100BFDFF85B
:1005E000CC81D8F8188048F00108DFF8C091C9F82C
:1005F0001880C846D8F8188008F00108CDF80080A7
:1006000000BF00BF4FEAB9384FEA920958F82950A5
:100610004FEA82784FEA18794FF00F0808FA09F884
:1006200025EA0805DFF88881434502D14FF000082C
:1006300016E0DFF88081434502D14FF001080FE05A
:10064000DFF87481434502D14FF0020808E0DFF87B
:100650006C81434502D14FF0030801E04FF00408DC
:100660004FEA82794FEA197908FA09F848EA05054C
:10067000DFF84C814FEA920948F82950D1F80480FC
:1006800008F48018B8F5801F0AD1DFF83881D8F84F
:10069000008048EA0008DFF82C91C9F8008009E0E2
:1006A000DFF82081D8F8008028EA0008DFF81491EC
:1006B000C9F80080D1F8048008F40018B8F5001FCC
:1006C00010D1DFF8008108F10408D8F8008048EA6A
:1006D0000008DFF8F09000E05AE009F10409C9F8D9
:1006E00000800DE0DFF8DC8008F10408D8F8008015
:1006F00028EA0008DFF8CC9009F10409C9F8008065
:10070000D1F8048008F40038B8F5003F0ED1DFF8C6
:10071000B480A8F10408D8F8008048EA0008DFF89F
:10072000A490A9F10409C9F800800DE0DFF89480D5
:10073000A8F10408D8F8008028EA0008DFF88490BF
:10074000A9F10409C9F80080D1F8048008F48038C0
:10075000B8F5803F0ED1DFF86C80A8F10808D8F812
:10076000008048EA0008DFF85C90A9F10809C9F8A0
:1007700000800DE0DFF84C80A8F10808D8F8008070
:1007800028EA0008DFF83C90A9F10809C9F80080C0
:10079000521CD1F8008028FA02F8B8F1000F7FF45B
:1007A00089AEBDE8F887000000001110001002407B
:1007B00000080140000C01400010014000140140FD
:1007C000080001400804014001480068704700002B
:1007D00000000020034800680349097808440149E3
:1007E00008607047000000200800002010B508488D
:1007F000006840F0100006490860032000F0D2F8BD
:100800000F2000F007F800F055F8002010BD0000A0
:1008100000200240F0B587B00446002600270025DE
:1008200000BF1F48806940F400601D498861084688
:10083000806900F40060009000BF00BF01A902A819
:1008400000F08AF900F0C0F906461648B6FBF0F051
:10085000471E15481549086040F2E7311348C1604A
:100860004760002101618160816100F043FC054621
:1008700095B90E4800F072FC05466DB9192000F0DC
:1008800043F8102C07D200222146192000F04CF822
:100890000748046000E00125284607B0F0BD0000CD
:1008A0000010024040420F00002C014024010020B3
:1008B0000400002008B500BF1148806940F0010025
:1008C0000F4988610846806900F00100009000BF70
:1008D00000BF00BF0846C06940F08050C8610846AC
:1008E000C06900F08050009000BF00BF00BF054904
:1008F000486820F0E06040F00070486000BF08BD2C
:10090000001002400000014001460846002809DBB3
:1009100000F01F0301229A4043099B0003F1E023EA
:10092000C3F8002100BF70472DE9F05F80460D46F7
:100930001646002701F0ACFA074639462A463346E8
:1009400001F00700C0F1070ABAF1040F02D94FF015
:10095000040A01E0C0F1070AD14600F1040ABAF125
:10096000070F02D24FF0000A01E0A0F1030AD446BB
:100970004FF0010A0AFA09FAAAF1010A0AEA020A80
:100980000AFA0CFA4FF0010B0BFA0CFBABF1010B5E
:100990000BEA030B4AEA0B042146404601F080FAB9
:1009A000BDE8F09F00BF00F00702064B19684FF644
:1009B000FF031940044B0B4343EA0221014B19602A
:1009C00000BF70470CED00E00000FA0570B504466A
:1009D0000D460CB9012070BD5A48006800F00700B0
:1009E000A8420ED25748006820F007002843554916
:1009F00008600846006800F00700A84201D0012006
:100A0000E9E7207800F0020002281DD1207800F0EC
:100A10000400042805D14C48406840F4E0604A498D
:100A20004860207800F00800082805D14648406852
:100A300040F46050444948604348406820F0F0006A
:100A4000A168084340494860207800F0010078B36D
:100A50006068012806D13C48006800F4003090B975
:100A60000120B8E76068022806D13748006800F026
:100A7000007040B90120AEE73348006800F0020082
:100A800008B90120A7E73048406820F003006168FA
:100A900008432D494860FFF797FE064609E0FFF737
:100AA00093FE801B41F28831884202D9032092E7ED
:100AB00007E02548406800F00C006168B0EB810F4A
:100AC000EDD12048006800F00700A8420ED91D486B
:100AD000006820F0070028431A49086008460068AB
:100AE00000F00700A84201D0012074E7207800F050
:100AF0000400042807D11448406820F4E060E1684D
:100B0000084311494860207800F00800082808D1FF
:100B10000D48406820F46050216940EAC1000A494C
:100B2000486000F061F808494968C1F30311074AB9
:100B3000515CC8400649086006480068FFF76AFE35
:100B4000002048E70020024000100240563C000808
:100B50000C000020040000200F2202600D4A5268A1
:100B600002F0030242600B4A526802F0F002826017
:100B7000084A526802F4E062C260064A526802F40F
:100B80006052D2080261044A126802F007020A6049
:100B90007047000000100240002002400148006839
:100BA000704700000C00002000B5FFF7F7FF044974
:100BB0004968C1F30221034A515CC84000BD0000EE
:100BC00000100240663C000800B5FFF7E7FF04494B
:100BD0004968C1F3C221034A515CC84000BD00000E
:100BE00000100240663C000870B50021002200247D
:100BF00000230020134D696801F00C05F5B1042DA8
:100C000002D0082D19D101E00F4819E00F4DC1F3B2
:100C10008346AB5D01F4803555B10A4D6D68C5F36F
:100C200040450B4E725D084D5D43B5FBF2F402E0AA
:100C3000084D03FB05F4204602E000BF024800BF58
:100C400000BF70BD0010024000127A00443C000852
:100C5000543C000800093D00F8B504460CB90120D9
:100C6000F8BD207800F00100002878D0F8484068EE
:100C700000F00C0004280CD0F548406800F00C008F
:100C8000082811D1F248406800F48030B0F5803F68
:100C90000AD1EF48006800F4003000285FD0606897
:100CA00000285CD10120DBE700BF6068B0F5803F21
:100CB00006D1E748006840F48030E549086028E044
:100CC000606858B9E248006820F48030E049086064
:100CD0000846006820F4802008601AE06068B0F5DB
:100CE000A02F0BD1DA48006840F48020D849086072
:100CF0000846006840F4803008600AE0D448006884
:100D000020F48030D24908600846006820F4802032
:100D1000086000BF606888B1FFF756FD054606E031
:100D2000FFF752FD401B642801D9032098E7C8480B
:100D3000006800F400300028F2D010E0FFF744FD16
:100D4000054606E0FFF740FD401B642801D903205B
:100D500086E7BF48006800F400300028F2D1207810
:100D600000F00200022857D1B948406800F00C009A
:100D700050B1B748406800F00C00082818D1B448BA
:100D8000406800F4803098B9B148006800F0020073
:100D900020B12069012801D0012061E7AC4800683A
:100DA00020F0F800616940EAC100A949086033E019
:100DB0002069E8B10120A7490860FFF705FD054655
:100DC00006E0FFF701FD401B022801D9032047E799
:100DD0009F48006800F002000028F2D09C4800689C
:100DE00020F0F800616940EAC1009949086013E009
:100DF000002098490860FFF7E7FC054606E0FFF78A
:100E0000E3FC401B022801D9032029E79048006831
:100E100000F002000028F2D1207800F00800082835
:100E20002DD1A069B8B101208B490860FFF7CCFC37
:100E3000054606E0FFF7C8FC401B022801D9032045
:100E40000EE78348406A00F002000028F2D001203B
:100E500000F044FD13E000207F490860FFF7B4FC78
:100E6000054606E0FFF7B0FC401B022801D903202D
:100E7000F6E67748406A00F002000028F2D12078B8
:100E800000F00400042873D100277148C06900F005
:100E9000805070B900BF6E48C06940F080506C4906
:100EA000C8610846C06900F08050009000BF00BFD4
:100EB00001276A48006800F48070B0B9674800688C
:100EC00040F4807065490860FFF77EFC054606E047
:100ED000FFF77AFC401B642801D90320C0E65F4875
:100EE000006800F480700028F2D000BFE06801289C
:100EF00006D15748006A40F001005549086227E0D2
:100F0000E06858B95248006A20F001005049086270
:100F10000846006A20F00400086219E0E06805282D
:100F20000BD14B48006A40F004004949086208466A
:100F3000006A40F0010008620AE04548006A20F0BB
:100F40000100434908620846006A20F00400086274
:100F500000BFE068A0B1FFF737FC054609E0FFF7E6
:100F600033FC401B41F28831884202D9032077E6E6
:100F700022E03748006A00F002000028EFD012E0BB
:100F8000FFF722FC054608E0FFF71EFC401B41F27C
:100F90008831884201D9032062E62D48006A00F0BA
:100FA00002000028F0D1012F05D12948C06920F0A6
:100FB00080502749C86100BFE069C8B32448406831
:100FC00000F00C00082860D0E069022848D1002019
:100FD00020490866FFF7F8FB054606E0FFF7F4FB3B
:100FE000401B022801D903203AE61948006800F0A6
:100FF00000700028F2D1206AB0F5803F07D1144874
:10100000406820F40030A168084311494860D4E9E1
:10101000080108430E49496821F4741108430C493A
:10102000486001200B490866FFF7CEFB054607E044
:101030003DE0FFF7C9FB401B022801D903200FE662
:101040000348006800F000700028F2D02FE0000094
:101050000010024000004242800442420070004002
:10106000002014490866FFF7AFFB054606E0FFF7CE
:10107000ABFB401B022801D90320F1E50E480068B4
:1010800000F000700028F2D111E0E069012800D1E1
:10109000E6E50948466806F48031206A814204D1B9
:1010A00006F47011606A814201D00120D8E5002069
:1010B000D6E50000000042420010024070B5044630
:1010C0002546681EB0F1807F01D301200FE0681E25
:1010D0004FF0E02148610F214FF0FF3000F0E0FEBB
:1010E00000204FF0E021886107200861002070BDDA
:1010F0007047704710B504460CB9012010BD94F834
:101100003D0028B9002084F83C00204600F025F876
:10111000022084F83D00211D206800F08BFC012096
:1011200084F8460000BF84F83E0001213F200155AD
:10113000402001554120015500BF00BF012084F827
:10114000420043200155442001554520015500BF70
:10115000012084F83D000020D0E77047014691F857
:101160003D00012801D001207047022081F83D0098
:101170000868C06840F001000B68D860124B08682E
:1011800098420BD00868B0F1804F07D00F4B086829
:10119000984203D00E4B086898420CD108688068CA
:1011A00000F00702062A0CD00868006840F0010031
:1011B0000B68186005E00868006840F001000B68E3
:1011C00018600020D0E70000002C0140000400401F
:1011D00000080040704770B504462068C568206864
:1011E000066906F00200022819D105F00200022863
:1011F00015D1401F2168086101202077206880698F
:1012000000F0030018B12046FFF7E4FF05E0204698
:1012100000F097F8204600F095F80020207706F0BF
:101220000400042819D105F00400042815D1C04396
:1012300021680861022020772068806900F44070EE
:1012400018B12046FFF7C6FF05E0204600F079F808
:10125000204600F077F80020207706F008000828E4
:1012600019D105F00800082815D1C043216808618C
:10127000042020772068C06900F0030018B12046E0
:10128000FFF7A8FF05E0204600F05BF8204600F0DD
:1012900059F80020207706F01000102819D105F029
:1012A0001000102815D1C04321680861082020775C
:1012B0002068C06900F4407018B12046FFF78AFF2B
:1012C00005E0204600F03DF8204600F03BF8002005
:1012D000207706F0010048B105F0010030B16FF051
:1012E000010021680861204600F02EF806F0800019
:1012F000802809D105F08000802805D1C0432168ED
:1013000008612046FFF7F4FE06F04000402809D1AE
:1013100005F04000402805D1C043216808612046FF
:1013200000F01EF806F02000202809D105F020006A
:10133000202805D1C043216808612046FFF7D9FE67
:1013400070BD70477047000010B50446034920681F
:10135000884201D1FFF73EFA10BD0000002C014089
:101360007047F8B504460E46174694F84200202808
:101370002ED106B10FB90120F8BD01202063002055
:1013800060633A463146204600F0E2FC0546EDB97E
:10139000206B012819D100BF002000902068006850
:1013A000009020684068009000BF00BF00BF00BFF1
:1013B00021680C3151E8001F41F0100021680C3108
:1013C00041E80002002AF3D100E001252846D3E7D6
:1013D0000220D1E770B505460C460B4928688842C3
:1013E00011D1214609A001F0EFF90C490CA001F040
:1013F000EBF922460021094801F052FA4022074940
:101400000848FFF7AEFF70BD003801407265637693
:10141000206E756D3A25640A00000000EC2E002055
:1014200025730A002C2F0020704700002DE9F84F8B
:101430000446206805682068C668206847694FF040
:101440000009CA4605F00F09B9F1000F0AD105F0ED
:10145000200038B106F0200020B1204600F07CFBCF
:10146000BDE8F88FB9F1000F7BD007F0010018B983
:1014700006F49070002874D005F0010030B106F435
:10148000807018B1606C40F00100606405F00400E9
:1014900030B107F0010018B1606C40F002006064E8
:1014A00005F0020030B107F0010018B1606C40F0A7
:1014B0000400606405F0080048B106F0200010B98F
:1014C00007F0010018B1606C40F008006064606CC7
:1014D000002845D005F0200028B106F0200010B10A
:1014E000204600F039FB20684069C0F3801A606C28
:1014F00000F0080010B9BAF1000F2CD0204600F01F
:10150000E5FA2068406900F0400000B300BF00BF6A
:101510002168143151E8001F21F040002168143186
:1015200041E80002002AF3D100BFE06B50B17748D8
:10153000E16B4863E06BFEF75FFF88B1E06B416BE6
:1015400088470DE02046FFF76FFF09E009E02046DD
:10155000FFF76AFF04E02046FFF766FF00206064A3
:101560007EE7206B012877D105F01000002873D0AA
:1015700006F010000028FAD000BF0020009020687C
:101580000068009020684068009000BF00BF20689D
:10159000406900F0400000285FD0E06B00684068C0
:1015A0001FFA80F8B8F1000F55D0A08D404552DDEC
:1015B000A4F82E80E06B8069202843D000BF00BFD4
:1015C00021680C3151E8001F21F4807021680C3132
:1015D00041E80002002AF3D100BF00BF00BF21682C
:1015E000143151E8001F21F001002168143141E855
:1015F0000002002AF3D100BF00BF00BF21681431F0
:1016000051E8001F21F040002168143141E8000238
:10161000002AF3D100BF202084F84200002020637C
:1016200000BF00BF21680C3151E8001F21F01000FD
:1016300021680C3141E80002002AF3D100BFE06BC1
:10164000FEF7AEFE02206063A08DE28D801A81B2AB
:101650002046FFF7BFFE03E742E0A08DE18D401A70
:101660001FFA80F8E08DD0B3B8F1000F37D000BF7B
:1016700000BF21680C3151E8001F21F490702168EF
:101680000C3141E80002002AF3D100BF00BF00BFC7
:101690002168143151E8001F21F001002168143144
:1016A00041E80002002AF3D100BF202084F8420064
:1016B0000020206300BF00BF21680C3151E8001FEB
:1016C00021F0100021680C3141E80002002AF3D11A
:1016D00000BF0220606341462046FFF77BFEBFE665
:1016E00005F0800030B106F0800018B1204600F00F
:1016F0004FFBB5E605F0400030B106F0400018B1F0
:10170000204600F019FAABE600BFA9E6B91A0008B6
:1017100010B504460CB9012010BDA06900B100E06D
:1017200000BF94F8410028B9002084F8400020460A
:1017300000F02AF8242084F841002068C06820F4D2
:1017400000502168C860204600F084FA20680069D3
:1017500020F49040216808612068406920F02A0048
:10176000216848612068C06840F400502168C86062
:1017700000206064202084F8410084F842000020AA
:10178000606300BFC8E7000010B586B004460020C3
:1017900002900390049005901A49206888422ED147
:1017A00000BF1948806940F48040174988610846A5
:1017B000806900F48040019000BF00BF00BF084670
:1017C000806940F0040088610846806900F00400E8
:1017D000019000BF00BF4815029002200390032033
:1017E000059002A90948FEF75FFE4FF48060029061
:1017F00000200390049002A90448FEF755FE06B0AD
:1018000010BD0000003801400010024000080140F7
:1018100070472DE9F84F04460E46174699464FF09B
:10182000000A94F84100202850D106B117B90120D0
:10183000BDE8F88F00206064212084F84100FEF7A5
:10184000C3FF8246A784E784A068B0F5805F04D117
:10185000206910B90025B04602E035464FF0000877
:101860001EE05346002280212046CDF8009000F073
:10187000BFFA20B1202084F841000320D8E745B901
:10188000B8F80000C0F308002168486008F10208B9
:1018900003E02878216848606D1CE08C401EE084DD
:1018A000E08C0028DDD15346002240212046CDF8AF
:1018B000009000F09DFA20B1202084F84100032020
:1018C000B6E7202084F841000020B1E70220AFE70E
:1018D000704700BFFEE700BFFEE7000008B50849FB
:1018E0000968C9084FF47A72B1FBF2F141430091E3
:1018F00000BF00BF00994A1E00920029F9D108BD1F
:101900000C00002010B500F02BFF01F0CDFD00F021
:1019100041FF10BD00B58FB0282105A8FEF7D2FC0D
:1019200014216846FEF7CEFC0120059000040690C5
:10193000002007900120099002200C90C1030D9116
:101940004FF4E0110E9105A8FFF786F908B1FEF7F4
:1019500024FD0F20009002200190002002904FF4FF
:10196000806003900020049002216846FFF72EF863
:1019700008B1FEF712FD0FB000BD000010B5002148
:1019800000200022214B5B6803F00C0121B10429E7
:1019900006D0082928D107E01D4B1E4C236027E004
:1019A0001B4B1C4C236023E0184B5B6803F4701046
:1019B000164B5B6803F48032022303EB904022B99C
:1019C000154B4343134C23600DE0104B5B6803F44D
:1019D000003323B1104B43430E4C236003E00C4B08
:1019E00043430C4C236003E0094B0A4C236000BFC7
:1019F00000BF064B5B68C3F30313084CE15C054B67
:101A00001B68CB40034C236010BD00000010024057
:101A100000127A000C00002000093D00563C00082E
:101A20007047000010B50248FFF7D5FB10BD00005D
:101A30002401002010B502681C4B984208D0B0F178
:101A4000804F05D01A4B984202D01A4B984203D1CE
:101A500022F070024B681A43144B984208D0B0F140
:101A6000804F05D0124B984202D0124B984203D1BE
:101A700022F44072CB681A4322F080034C6943EA97
:101A8000040202608B68C3620B688362074B984252
:101A900001D10B69036301234361036903F001036F
:101AA0001BB1036923F00103036110BD002C014049
:101AB000000400400008004070B505466C6A002034
:101AC000E085E0842046FFF7AFFC70BD00BF00BF9B
:101AD00002680C3252E8002F22F4907102680C3236
:101AE00042E80013002BF3D100BF00BF00BF026823
:101AF000143252E8002F22F001010268143242E849
:101B00000013002BF3D100BF016B01290ED100BFE0
:101B100000BF02680C3252E8002F22F01001026868
:101B20000C3242E80013002BF3D100BF202180F8D3
:101B3000421000210163704710B504462068C06858
:101B400020F040002168C860202084F84100204631
:101B5000FFF7BEFE002010BDF8B5044694F8420021
:101B6000222875D1A068B0F5805F0CD1206950B9EA
:101B70000025A66A20684068C0F308003080A06A8B
:101B8000801CA06215E0A56A0026A068B0F5805F01
:101B900003D0A06828B9206918B920684068287067
:101BA00004E02068406800F07F002870A06A401CB4
:101BB000A062E08D401E80B2E085002846D12068FA
:101BC000C06820F020002168C8602068C06820F448
:101BD00080702168C8602068406920F00100216899
:101BE0004861202084F8420000206063206B0128B7
:101BF00026D10020206300BF00BF21680C3151E8CE
:101C0000001F21F0100021680C3141E80002002A79
:101C1000F3D100BF2068006800F0100010280AD13E
:101C200000BF002000902068006800902068406895
:101C3000009000BF00BFA18D2046FFF7CBFB02E064
:101C40002046FFF7E5FD0020F8BD01E00020FBE79E
:101C50000220F9E770B504462168096921F4405172
:101C6000E2681143226811612269A1681143626927
:101C700041EA02052168C96841F20C629143294397
:101C80002268D1602168496921F44071A269114339
:101C9000226851612D4A2168914202D1FEF794FFDA
:101CA00001E0FEF781FF00EBC00101EB001162686B
:101CB0009200B1FBF2F100EBC00202EB001263688C
:101CC0009B00B2FBF3F26423B2FBF3F202EBC2031C
:101CD00003EB0212A1EB8201322202EB011164221A
:101CE000B1FBF2F101F0F00100EBC00202EB0012D7
:101CF00063689B00B2FBF3F26423B2FBF3F201EBE7
:101D0000021200EBC00101EB001163689B00B1FB04
:101D1000F3F100EBC00303EB00136668B600B3FBFE
:101D2000F6F36426B3FBF6F303EBC30606EB0313EB
:101D3000A1EB8301322303EB01116423B1FBF3F127
:101D400001F00F0111442268916070BD003801401C
:101D500010B5034699629A85DA85002058642220DE
:101D600083F84200186928B11868C06840F4807090
:101D70001C68E0601868406940F001001C68606100
:101D80001868C06840F020001C68E060002010BDAA
:101D9000014691F84100212828D18868B0F5805F7C
:101DA0000BD1086948B90A6A1088C0F308000B68AB
:101DB0005860086A801C086205E00B6A581C0862BB
:101DC00018780B685860C88C401E80B2C88458B917
:101DD0000868C06820F080000B68D8600868C06898
:101DE00040F040000B68D860002070470220FCE7FC
:101DF0002DE9F84304460D4617469846089E31E003
:101E0000701C70B3FEF7E0FCA0EB0800B04200D8F5
:101E100016B90320BDE8F8832068C06800F004000C
:101E2000F8B1802D1ED0402D1CD020680068C0F372
:101E3000C000B0B100BF0020009020680068009092
:101E400020684068009000BF00BF2046FFF73EFEBC
:101E50000820606400BF002084F8400000BF01201B
:101E6000D8E7FFE7206800682840A84201D1012098
:101E700000E00020B842C3D00020CBE710B50248F4
:101E8000FFF7D4FA10BD00002C2F002000BFFEE7A2
:101E900002480068C0F30220704700000CED00E02B
:101EA00010B5002804DB0A07130E054A135406E098
:101EB0000A07140E034A00F00F031B1FD45410BD71
:101EC00000E400E018ED00E0014609B90020704789
:101ED000C8B220B1C8B20E4A105C401CF7E701F44A
:101EE0007F4028B10A48C1F30722805C0930EEE741
:101EF00001F47F0028B10648C1F30742805C11302D
:101F0000E5E7034800EB116000781930DFE70000D7
:101F10006E3C000810B500F065FA002010BD10B549
:101F2000044600F06FFA10BD70B50446064800681C
:101F3000FFF7CAFF451E054850F83500A0F114060A
:101F40002560304670BD0000E000002074030020D2
:101F500070B501F037FA0446FEF736F9054620461B
:101F600000F078FE04F1440001F06CFB042084F8DA
:101F70003400204601F088F92846FEF729F900F0E0
:101F800075FD70BD2DE9FC5F04468B4615461E4667
:101F9000DDE90D9ADDF830800F9F04F114004060F8
:101FA000006000BF25626662C4F82880C4F82C90E7
:101FB0002321D4E90A0200F073FCD4E90A3C63440B
:101FC0001A1F134BD4E9080100F0A4FBE06184F868
:101FD00035A00020A063E7632764206384F8340001
:101FE00020676067009023460A4A2146019004F169
:101FF000440001F03BFB00BF0748006818B12046D1
:1020000005490968884700BF0020BDE8FC9F000023
:10201000511F00081D2000080001002070B5044673
:102020002546FEF7D1F806466FF00100286305F15A
:10203000140000F005FC284600F0BEFD3046FEF717
:10204000C7F800F013FD70BD2DE9F04704460E46B9
:1020500017469846DDF8209084F80990607A20F0C1
:1020600001006072E66127620020A062C4F824804B
:10207000002506E004F1140101EBC50000F0BEFBF1
:102080006D1C012DF6DBBDE8F0872DE9F04104461B
:102090000D46FEF799F80746204600F0C0FB50B900
:1020A0002068A0F11406B06A28603846FEF790F860
:1020B0000020BDE8F0813846FEF78AF84FF0FF3087
:1020C000F7E770B50546002406E005F1140101EBC1
:1020D000C40000F0BEFB641C012CF6DB70BD0000E8
:1020E00008B51EE069460F48FFF7CFFF38B101F091
:1020F00069F9044601F0A2F900F0B8FC0FE001F024
:10210000CDF904460098001B6FF00041884205D2CB
:102110000098001B0090009801F0C4F800BF00F088
:1021200045FFDFE71001002001E000207047FCE7D9
:1021300010B5044600F028F9FFF7F6FF10BD70B5A2
:10214000846A4D686219914214D0147804F0010435
:1021500084B9C46A94420DD0046B944200D10163E7
:102160000024146054684C60846A0C1B856A5668AD
:102170003544AC60846A8D6863198B4211D01C7839
:1021800004F001046CB9046B8C4200D10363002499
:102190000C604C685C60846A1C1B856A4E68354420
:1021A000AC6070BD2DE9F04F86B00D469C46DDE970
:1021B000106401960F9B04F04008B8F1000F02D0A4
:1021C000DFF8708101E0DFF87081CDF8008004F065
:1021D0001008B8F1000F01D024F0010404F0010848
:1021E000B8F1000F02D04FF0300801E04FF02008A6
:1021F000C246002704F00208B8F1000F11D0002AEF
:1022000002DA2D2752420CE004F00408B8F1000F66
:1022100001D02B2705E004F00808B8F1000F00D02A
:102220002027002142B94FF0300B8846491C0DF1A0
:10223000080909F808B01DE01AE0E146B9F10A0FF3
:1022400008D14FF00A0BB2FBFBFE0BFB1E28B2FBC2
:10225000FBF202E002F00F08120900BFDDF8009067
:1022600019F808B08846491C0DF1080909F808B0AA
:10227000002AE2D1B14200DD0E469B1B04F011089A
:10228000B8F1000F10D117B1002B00DD5B1E06E086
:10229000A84203D24FF0200880F80080401CB3F120
:1022A0000008A3F10103F3DC27B1A84200D20770B4
:1022B0005B1E401C04F01008B8F1000F0AD104E0C6
:1022C000A84201D280F800A0401CB3F10008A3F19D
:1022D0000103F5DC06E0A84203D24FF0300880F895
:1022E0000080401CB046761E8845F4DC08E0A84219
:1022F00005D20DF1080818F8018080F80080401C14
:10230000B1F10008A1F1010104DDDDF80480B8F1AC
:10231000000FECD106E0A84203D24FF0200880F86D
:102320000080401CB3F10008A3F10103F3DC06B008
:10233000BDE8F08F7F3D00086E3D00081CB51420FD
:102340000A214FF400730022CDE90010044905A0D2
:1023500000F054FF0446204601F05CF81CBD00006C
:10236000312100086D61696E0000000010B5044C59
:1023700002E020688047241D02488442F9D310BD42
:10238000EC3D0008F43D000810B5044C02E0206864
:102390008047241D02488442F9D310BDF43D000853
:1023A000F83D000870B519E000F050FF044604B98C
:1023B00015E0266F204600F04FFB0546012D02D1A7
:1023C000204600F0E5FA0EB12046B0472DB9A06ACC
:1023D00000F03AF8204600F0BDFA00BFE4E700BF85
:1023E00070BD000010B5FDF7EFFE044604480088FC
:1023F000401C00B2024908802046FDF7E9FE10BDEE
:10240000E400002010B5FDF7DFFE04460C4800880C
:10241000401E00B20A4908800846B0F900000028B2
:102420000ADC002008802046FDF7D2FE054800683F
:1024300028B100F01BFB02E02046FDF7C9FE10BDED
:10244000E4000020E800002070B5044600BF0A4800
:10245000006818B1204608490968884700BF04B9D8
:1024600070BDFFF757FD0546204600F009FD2846E0
:10247000FFF755FD00BFF3E77400002000487047E8
:10248000EC06002000487047EC2E002070B5FEF7E7
:10249000ADF9FFF73FFAFFF771FAFEF77FFB4FF454
:1024A0007A71B0FBF1F42046FEF708FEFFF75EFFFD
:1024B000FFF7E8FF0446FFF7E1FF0546214600F07D
:1024C0001DFE70BDF8B50546002400260D200090C5
:1024D00000BF00200E4981F8400000BF284600F0F0
:1024E000EAFD064600BF0FE0285D0A2805D101235A
:1024F0001A4669460648FFF78CF9291901231A463E
:102500000348FFF786F9641CB442EDD3F8BD000020
:102510002C2F002070B505462C1D2E48006838B1C0
:1025200028462C4909688847064606B970BD00BF91
:1025300029A0E16B00F048F92BA0216A00F044F9D2
:102540002DA0616A00F040F92FA0A16A00F03CF9CB
:1025500031A0E16A00F038F933A0216800F034F9C5
:1025600035A0616800F030F937A0A16800F02CF9BF
:1025700039A0E16800F028F93BA0216900F024F9B6
:102580003DA0616900F020F93FA0A16900F01CF9AD
:1025900041A0E16900F018F943A0216B00F014F9A3
:1025A00045A0616B00F010F947A0A16B00F00CF999
:1025B000287800F0040038B100F004FF06463146E8
:1025C00045A000F001F902E04BA000F0FDF800BFCB
:1025D000FEE700001C0000207073723A203078255E
:1025E0003038780A000000007230303A2030782508
:1025F0003038780A000000007230313A20307825F7
:102600003038780A000000007230323A20307825E5
:102610003038780A000000007230333A20307825D4
:102620003038780A000000007230343A20307825C3
:102630003038780A000000007230353A20307825B2
:102640003038780A000000007230363A20307825A1
:102650003038780A000000007230373A2030782590
:102660003038780A000000007230383A203078257F
:102670003038780A000000007230393A203078256E
:102680003038780A000000007231303A2030782566
:102690003038780A000000007231313A2030782555
:1026A0003038780A000000007231323A2030782544
:1026B0003038780A00000000206C723A203078250B
:1026C0003038780A000000002070633A2030782506
:1026D0003038780A00000000686172642066617515
:1026E0006C74206F6E207468726561643A20257383
:1026F0000D0A0D0A000000006861726420666175B1
:102700006C74206F6E2068616E646C65720D0A0DCA
:102710000A000000F0B504460D461646301D20F0B4
:10272000070040380146002203E00C4F41F82270B8
:10273000521C102AF9D30D624FF0000CC1F824C0CE
:10274000C1F828C0C1F82CC0C1F830C04B638C63FD
:102750004FF0807CC1F83CC0F0BD0000EFBEADDEA4
:1027600010B5FDF731FD044608480078401C0749C4
:10277000087000BF0648006810B10548006880472F
:1027800000BF2046FDF724FD10BD000038000020EA
:102790003000002010B5FDF717FD044600BF0848C3
:1027A000006810B106480068804700BF05480078FF
:1027B000401E044908702046FDF70AFD10BD0000C8
:1027C00034000020380000200FB438B505A8009070
:1027D0007F210948009B049A01F02CF804467F2CC5
:1027E00000D97F240448FFF76DFE002000902046AA
:1027F00038BC5DF814FB0000F4020020406000606B
:1028000070470268516002680A6001604860704762
:102810000268516002680A600160486070470146C2
:102820000868884201D1012070470020FCE7D0E908
:1028300000215160D0E900121160406000607047D3
:10284000D0E900215160D0E90012116040600060C1
:102850007047D0E900215160D0E90012116040605A
:102860000060704770B50446FFF754FB05462146EB
:102870000948006800F07AFA06462846FFF74FFB41
:1028800000BF0648006820B121463046034A12685E
:10289000904700BF304670BD7800002070000020D7
:1028A000F0B50C460546E6B2042A15D300F003073E
:1028B00097B9014646EA062343EA034304E008C108
:1028C00008C108C108C1103A102AF8D201E008C1B5
:1028D000121F042AFBD20D4601E005F8016B171EFA
:1028E000A2F10102F9D1F0BD2DE9F04106460F46F3
:1028F000304600F067F80546E868FFF7B3FF044686
:1029000014B90020BDE8F08100212046EA68FFF7F5
:10291000C7FF26720020607208223946204600F068
:10292000D3FB00BF0A48006818B12046084909686F
:10293000884700BFFDF748FC804604F10C01281DC4
:10294000FFF75FFF4046FDF743FC2046DAE7000053
:10295000CC00002070B5044600BF0C48006818B1D8
:1029600020460A490968884700BF00202072FDF709
:102970002BFC054604F10C00FFF759FF2846FDF734
:1029800027FC2046FFF760FD70BD0000D00000204E
:1029900070B5044600BF0A48006818B120460849CF
:1029A0000968884700BF00202072FDF70DFC05462E
:1029B00004F10C00FFF73BFF2846FDF709FC70BD52
:1029C000D0000020024600210AE0074800EB011079
:1029D0000078904203D1044800EB01107047491C75
:1029E0000529F2DB0020F9E77C0000202DE9F04703
:1029F00004460D46904600262846FFF7E3FF0746AB
:102A0000FFF7F0FC7E6802E0A6F10C003668381D86
:102A10008642F9D1FFF7F6FC45F0800020720822CB
:102A20004146204600F050FB00BF0A48006818B13C
:102A3000204608490968884700BFFDF7C5FB814665
:102A400004F10C01381DFFF7DCFE4846FDF7C0FB22
:102A5000BDE8F087CC0000200146087A00F0800035
:102A600008B1012070470020FCE70000F8B5FDF731
:102A7000ABFB06464948008800286FD148480068EB
:102A800000286CD000276846FFF74EFA04464548F8
:102A9000006890F8340000F00700032825D1414871
:102AA000006890F835000099884202D23D480468D9
:102AB00011E03C48006890F835000099884209D13F
:102AC0003848006890F8340000F0080010B9354824
:102AD000046800E001273348006890F8340020F0D3
:102AE00008003049096881F834002E4800688442A3
:102AF0003DD02D49009808702A480568046000BF41
:102B00002A48006820B121462846284A1268904782
:102B100000BF17B1284600F04FF8204600F09AF8A1
:102B200094F8340020F0070040F0030084F83400EB
:102B30001F480078A0B900BF1E48006818B1284699
:102B40001C490968884700BF04F11C0105F11C00FD
:102B5000FDF741FB3046FDF73BFB1EE019E017E0B7
:102B600004F11C0105F11C00FDF735FB0FE00D48D9
:102B7000006800F06FF80B48006890F8340020F00F
:102B8000070040F003000749096881F8340000BFDE
:102B900000BF3046FDF71CFB00BFF8BDE40000207D
:102BA000E0000020E8000020EC000020F000002001
:102BB00038000020F400002070B50446FDF704FB47
:102BC000054621480068844208D194F8340020F07A
:102BD000070040F0030084F8340030E014F8340FAC
:102BE00020F0070040F00100207014F8340900F0D4
:102BF000080070B194F83520144B03EBC20004F1C7
:102C000014014268116042684A604160086000BF78
:102C10000EE094F835200D4B03EBC20004F11401D3
:102C20000268516002680A600160486000BF00BF2E
:102C30000749A06B096808430549086000BF28469A
:102C4000FDF7C6FA70BD0000E80000207403002004
:102C5000E000002070B50446FDF7B6FA054604F121
:102C60001400D0E900215160D0E9001211604060E9
:102C7000006000BF94F83510094A02EBC1000168FA
:102C8000814201D1012100E0002129B10548A16B59
:102C900000688843034908602846FDF799FA70BD2B
:102CA00074030020E00000201CB50AA0FFF78CFD93
:102CB0000BA0FFF789FD13A015A101231A46CDE94A
:102CC0000010042115A0FFF77FFD1DA0FFF77CFD7C
:102CD0001CBD00000A205C207C202F0A00000000A0
:102CE0002D205254202D2020202020546872656110
:102CF00064204F7065726174696E672053797374D4
:102D0000656D0A0032323A32373A32300000000044
:102D10004E6F76203330203230323400202F207C2A
:102D2000205C202020202025642E25642E25642070
:102D30006275696C642025732025730A0000000009
:102D40002032303036202D203230323220436F7026
:102D50007972696768742062792052542D546872C0
:102D6000656164207465616D0A000000F0B5074676
:102D70000B460BB90020F0BD3946D81C20F00303E8
:102D80000C2B00D20C23486B984201D20020F2E7B2
:102D9000D1F828C0086BA0EB0C046BE0886A02191C
:102DA000107800F00100002861D104F10C00D2F885
:102DB00004C0ACEB0000984259D304F10C00D2F8E7
:102DC00004C0ACEB000C03F11800844523D304F1DC
:102DD0000C00C618886A851921F001002860506827
:102DE0006860AC605660D5F804C0486B0C30844510
:102DF00004D0886AD5F804C06044866003F10C00F2
:102E0000D1F820C060440862D1E908C0604513D2FF
:102E1000086A486210E05068D1F828C0A2EB0C0C98
:102E2000A0EB0C00D1F820C060440862D1E908C0D2
:102E3000604501D2086A486221F00100401C106020
:102E4000086B904210D106E0D1F830C0886ADCF8F7
:102E500004C060440863086B007800F0010018B1FA
:102E6000D1E90BC06045EFD102F10C0083E7886A1D
:102E700020444468486BC01AA0428FD200207AE7F1
:102E800070B5064606B970BDA6F10C04206820F0A6
:102E9000010525F001002060286BA04200D92C63B9
:102EA0006068A96A611A401A296A081A28622146CC
:102EB0002846FFF744F900BFE5E700002DE9F74F8A
:102EC0000E461746F01C20F0030404F1380B0BF1FA
:102ED000030020F00308F01920F00309B9F1180FDE
:102EE00008D9A9F11800584504D3A9EB0800A0F1AE
:102EF000180A07E0F21931461BA0FFF765FC002015
:102F0000BDE8FE8F382200212046FFF7C9FC0C21C6
:102F10002046009AFFF76AFD22A06061C4F818807D
:102F2000C4F81CA0C4F834A0C4F82880A56A24F012
:102F300001002860606B0C3068600020A860A06A07
:102F400069680844E06224F00100401CE16A0860FE
:102F5000606B0C30E16A4860606B0C30E16A88603D
:102F6000A06A20632046CBE76D656D20696E6974A9
:102F70002C206572726F7220626567696E206164D1
:102F8000647265737320307825782C20616E64201C
:102F9000656E64206164647265737320307825788F
:102FA0000A000000736D616C6C0000007CB568461F
:102FB000FFF724FCFDF708F9064658E031480068A1
:102FC000A0F1140400F06AFA0546A06A281A6FF00E
:102FD0000041884249D200BF2B48006818B1204602
:102FE00029490968884700BF2046FFF76AF8607AD8
:102FF00000F0020018B9607A20F00100607204F15C
:1030000014016846FFF704FC002020490870304690
:10301000FDF7DEF8D4E90710884700BF1C480068B8
:1030200018B120461A490968884700BFFDF7CCF857
:1030300006460120154908706846FFF7F0FB00B10D
:1030400015E004F11400FFF704FC607A00F00200C0
:1030500060B1607A00F0010040B1607A20F00100B8
:103060006072204600F01AFB00E005E000BF054852
:10307000FFF7D5FB0028A1D000BF3046FDF7A8F828
:103080007CBD000010010020180100200C01002070
:103090001C0100200FB438B5044606A80090204655
:1030A000009A059900F066FD05460020009028462C
:1030B00038BC5DF814FB01460A4600E0521C10784B
:1030C0000028FBD1501A704770B50346A2B11846CC
:1030D0000C4600BF14F8016B00F8016B3EB902E02A
:1030E000002500F8015B551E2A1EF9D102E0551E8D
:1030F0002A1EEFD100BF00BF184670BD2DE9F04178
:1031000004460D46E01C20F0030625F00307BA1B19
:10311000214604A0FFF7D2FE0449086000BF00BFAB
:10312000BDE8F08168656170000000007800002053
:103130000020094A1080014607E0084A02EBC1005E
:103140004060006000BF481C01462029F5DB0020DC
:10315000034A106070470000E40000207403002060
:10316000E000002038B56846FEF7DEFE044606485B
:1031700004602046FFF76EFD032084F8340004F15C
:103180001C00FDF756F838BDE800002010B50024FB
:1031900005E0044901EBC400FFF730FB641C002C80
:1031A000F7D010BD040100201FB5002405E00D4933
:1031B00001EBC400FFF722FB641C002CF7D00A20AF
:1031C0000421CA01084BCDE90032CDE902100023E9
:1031D000064A07A1084800F0B1F8074800F01AF9BC
:1031E0001FBD000010010020EC040020E1200008B9
:1031F00074696D6572000000740400202DE9FF5FA2
:1032000006460F4690461D46DDE90EAB31460120CD
:10321000FFF76AFB8146B9F1000F03D1002004B02B
:10322000BDE8F09F2846FFF71DFB044624B9484639
:10323000FFF790FB0020F2E743463A463146484606
:103240008DE8300CFEF79EFE4846E8E770B5002595
:103250000C4C2068A04213D02068A0F11405FCF7A4
:10326000B3FF064605F11400D0E900215160D0E912
:10327000001211604060006000BF3046FCF7A8FFFC
:10328000284670BD280000200246054802F11401BE
:103290000368596003680B600160486000BF7047B5
:1032A0002800002010B50446204600F091F810BD1B
:1032B0000CE0002405E0064850F8245005B1A8476A
:1032C000641C042CF7D3FFF76DF800BFF1E7000092
:1032D000E402002010B586B0002420E0224612A1AE
:1032E00004A8FFF7D7FE20211F22CB00104800EBD7
:1032F0000420CDE9013203910090C4EB04110D4A82
:1033000002EBC10000230C4A04A900F017F8C4EB3B
:103310000411084A02EBC10000F07CF8641C002C88
:10332000DCD006B010BD00007469646C65256400D3
:10333000E40100206C010020B13200082DE9FF5F9C
:1033400005460C4616461F46DDE910ABDDE90E8941
:10335000224601212846FFF749FB3B4632462146DB
:1033600028468DE8000FFEF70DFE04B0BDE8F09F83
:1033700070B5044694F8340000F00700022802D02B
:103380004FF0FF3070BDFCF71FFF054604F114003D
:10339000FFF756FA04F1440000F028FA2046FFF740
:1033A0000BFC2846FCF714FF00BF0548006818B165
:1033B000204603490968884700BF0020E2E7000073
:1033C000FC0000200148006870470000E800002071
:1033D00031B5FFF7F7FF0446FCF7F6FE054600207F
:1033E0002063204600F02AF86A46002104F14400D8
:1033F00000F0F4F804F1440000F050F92846FCF71E
:10340000E7FEFFF733FB206B801C08B90020206328
:10341000206B38BD10B5044694F835100120884063
:10342000A063022084F834002046FFF7A1FFFFF7D5
:10343000C9FF08B1FFF71AFB002010BD70B50446A4
:1034400094F8340000F00705012D04D0032D02D0BC
:103450004FF0FF3070BDFCF7B7FE06462046FFF781
:10346000F9FB94F8340020F0070040F0020084F8E3
:10347000340004F1440000F0B9F93046FCF7A8FE2E
:1034800000BF0548006818B120460349096888470D
:1034900000BF0020DEE70000F800002001480068BF
:1034A000704700002000002070B500BF154800687C
:1034B00010B114480068804700BFFCF785FE054640
:1034C00011480068401C10490860FFF77BFF044664
:1034D000206C401E2064206C68B9E06B206494F876
:1034E000340040F0080084F834002846FCF770FEF1
:1034F000FFF7BCFA02E02846FCF76AFE00F006F887
:1035000070BD000024000020200000207CB568462B
:10351000FFF774F9FFF7C2FF0546FCF755FE0646B4
:103520004CE02B480068A0F11404A06A281A6FF040
:103530000041884240D200BF2648006818B12046AA
:1035400024490968884700BF2046FEF7BAFD607A23
:1035500000F0020018B9607A20F00100607204F1F6
:1035600014016846FFF754F9D4E907108847FFF7BC
:1035700095FF054600BF1848006818B12046164957
:103580000968884700BF6846FFF749F900B115E0B0
:1035900004F11400FFF75DF9607A00F0020060B1F9
:1035A000607A00F0010040B1607A20F001006072A2
:1035B000204600F073F800E005E000BF0448FFF784
:1035C0002EF90028ADD000BF3046FCF701FE7CBDCF
:1035D00004010020180100201C0100202DE9F04109
:1035E00004460E461546FCF7EFFD0746062E21D28F
:1035F000DFE806F00603090E131D606A28601AE072
:103600002868606217E0607A20F00200607212E0C1
:10361000607A40F0020060720DE0607A00F0010014
:1036200010B10120286001E00020286003E0A06ABA
:10363000286000E000BF00BF3846FCF7C9FD00204D
:10364000BDE8F08170B50446FCF7BEFD0546204696
:10365000FEF737FD607A20F0010060722846FCF723
:10366000B7FD2046FFF794F9002070BD2DE9F8431F
:1036700007460C4615461E46DDE9088922460A2102
:103680003846FFF7B3F94346324629463846CDF867
:103690000090FEF7D9FCBDE8F88300002DE9F8435F
:1036A00005464FF00008FCF78FFD81462846FEF7DF
:1036B00008FD687A20F00100687200BF4548006884
:1036C00018B1284643490968884700BFFFF7E6FE5E
:1036D000696A0844A862687A00F0040008B13E4EA6
:1036E00000E03E4E009600242AE019E05DF8242018
:1036F0001168142202EBC402881A826AAB6AD21AD9
:1037000000D108E0826AAB6AD21A6FF000439A4295
:1037100000D20CE000BF5DF8240000684DF82400E2
:103720005DF8240006EBC40149688842DED100BF81
:103730002CB15DF824000830611C4DF82100641C98
:10374000002CD2D026480068401C25490860084655
:10375000076805F114010098FFF75AF8022412E0F7
:1037600007F0030060B9C4F1010305F1140202EB94
:10377000C301C4F101025DF82200FFF749F800E03F
:1037800003E0BF08641C012CEAD900BF687A40F04E
:1037900001006872687A00F0040078B1114800787E
:1037A00001280BD1104890F8340000F007000228DF
:1037B00004D10D48FFF7DCFD4FF001084846FCF747
:1037C00007FDB8F1000F01D0FFF750F90020BDE868
:1037D000F8830000D8000020100100200401002020
:1037E000200100200C0100207404002070B5044664
:1037F000607A00F0010010B94FF0FF3070BD00BFDB
:103800000B48006818B1204609490968884700BF7D
:10381000FCF7DAFC05462046FEF753FC607A20F000
:10382000010060722846FCF7D3FC0020E6E70000A8
:10383000DC0000202DE9FF4F89B081464C460A98F4
:1038400009EB00064E4504D24FF0FF36A6EB090007
:103850000A9077E10B980078252806D0B44202D26E
:103860000B9800782070641C69E1002526E00B9815
:10387000401C0B900B9800782D2802D145F01005C4
:103880001CE00B9800782B2802D145F0040515E0C8
:103890000B980078202802D145F008050EE00B981F
:1038A0000078232802D145F0200507E00B98007826
:1038B000302802D145F0010500E000E0D7E700BF65
:1038C0004FF0FF370B98007830380A2804D20BA845
:1038D00000F078F907460EE00B9800782A280AD104
:1038E0000B98401C0B900C9880C80C90002F02DAAB
:1038F0007F4245F010054FF0FF3A0B9800782E28D4
:103900001CD10B98401C0B900B98007830380A287B
:1039100004D20BA800F056F982460AE00B98007812
:103920002A2806D10B98401C0B900C9850F804AB39
:103930000C90BAF1000F01DA4FF0000A0020049059
:103940000B980078682803D00B9800786C2805D174
:103950000B98007804900B98401C0B900A2005905F
:103960000B9800786F2873D00CDC632813D004DC2C
:1039700025286ED058286DD195E064286BD0692831
:10398000F9D197E0702873D0732825D075286ED0B0
:103990007828F0D18AE005F0100040B904E0B44284
:1039A00001D220202070641C781E071EF7DC0C98C2
:1039B00010F8041B0C90C8B20790B44201D20798CB
:1039C0002070641C04E0B44201D220202070641CEA
:1039D000781E071EF7DCB2E00C98006806900C9881
:1039E000001D0C90069808B960A006904FF00008E2
:1039F00001E008F10108B84504D0069810F8080065
:103A00000028F6D1BAF1000F02DDD04500DDD04626
:103A100005F0100048B904E0B44201D22020207023
:103A2000641C38467F1E4045F6DC002008900BE001
:103A3000B44202D2069800782070641C0698401C9C
:103A400006900898401C089008984045F0DB09E073
:103A500026E01FE032E02CE00AE0B44201D2202050
:103A60002070641C38467F1E4045F6DC67E024E089
:103A7000781C10B9082745F00105CDE9007A0295B8
:103A80000C9804C8102331460C902046FEF78AFBA0
:103A9000044654E0B44201D225202070641C4EE05C
:103AA000082005901DE045F0400500BF102005905E
:103AB00017E000BF45F0020500BF12E0B44201D29A
:103AC00025202070641C0B98007830B1B44202D2DB
:103AD0000B9800782070641C02E00B98401E0B903D
:103AE0002DE000BF04986C2807D10C9850F804BB57
:103AF0000C9005F00200B8B116E0049868280BD1CC
:103B00000C9830F8041B1FFA81FB0C9005F00200A2
:103B100050B10FFA8BFB07E00C9850F804BB0C90E7
:103B200005F0020000B100BFCDE9007A02955A46C7
:103B300031462046059BFEF735FB044600BF0B9837
:103B4000401C0B900B98007800287FF483AE0A98F5
:103B500038B1B44202D20020207002E0002006F802
:103B6000010CA4EB09000DB0BDE8F08F284E554CB8
:103B70004C29000037B505460C4622464FF0FF3170
:103B80002846029BFFF756FE3EBD002070470020EE
:103B90007047002070470020704710B5FCF714FBF9
:103BA000FEF774FCFFF780F8FFF7F0FAFFF7C0FAB2
:103BB000FEF7C4FBFFF7F8FAFFF78CFBFFF7D2FA2A
:103BC000002010BD0146002009E00B685A1C0A6065
:103BD0001A7800EB800302EB4302A2F130000A687E
:103BE0001278303A0A2AF0D37047000010B5124814
:103BF000124908604FF4E130486000210F488160AD
:103C0000C16001610C21416100218161C16101221A
:103C100014212520FCF788FE2520FCF775FE0748B7
:103C2000FDF776FD08B100BFFEE7402204490348D6
:103C3000FDF797FB002010BD003801402C2F00201D
:103C4000EC2E002002030405060708090A0B0C0DE0
:103C50000E0F101001020000000000000000010221
:103C60000304060708090000000001020304000025
:103C70000100020001000300010002000100040035
:103C80000100020001000300010002000100050024
:103C90000100020001000300010002000100040015
:103CA0000100020001000300010002000100060003
:103CB00001000200010003000100020001000400F5
:103CC00001000200010003000100020001000500E4
:103CD00001000200010003000100020001000400D5
:103CE00001000200010003000100020001000700C2
:103CF00001000200010003000100020001000400B5
:103D000001000200010003000100020001000500A3
:103D10000100020001000300010002000100040094
:103D20000100020001000300010002000100060082
:103D30000100020001000300010002000100040074
:103D40000100020001000300010002000100050063
:103D50000100020001000300010002000100040054
:103D600001000200010003000100020001003031E7
:103D70003233343536373839616263646566003012
:103D800031323334353637383941424344454600C1
:103D90004F4B000045494E56414C0000455253469A
:103DA000554C4C00454E4F4D454D000045494F0088
:103DB0004552524F52000000454E4F535953000098
:103DC00045494E54525054004554494D4F555400A6
:103DD00045554E4B4E4F5700454255535900000034
:103DE0004552534550545900973B00088F3B0008FB
:103DF000ED3B00088B3B0008933B00081C3E00088D
:103E0000000000202401000028010008403F0008B5
:103E100024010020B4340000440100080000000028
:103E2000100000000100000000127A0000000000F5
:103E30000000000000000000000000000000000082
:103E400000000000280000202800002000000000E2
:103E5000000000000000000000000000903D00088D
:103E6000B03D0008C83D00089C3D0008E03D00084A
:103E7000A43D0008B83D0008D83D0008AC3D00084E
:103E8000C03D0008943D0008D03D0008000000003F
:103E90000000000000000000010000008000002081
:103EA0008000002078000000020000009000002048
:103EB000900000202000000008000000A00000206A
:103EC000A0000020340000000A000000B000002024
:103ED000B00000202C0000000C000000C0000020FA
:103EE000C0000020280000000000000000000000CA
:103EF00000000000000000000000000000000000C2
:103F000000000000000000000000000000000000B1
:103F100000000000000000000000000000000000A1
:103F20000000000000000000010000000000000090
:103F30000000000000000000000000000000000081
:04000005080000ED02
:00000001FF
